:100000000C9463000C948B000C948B000C948F0464
:100010000C948F040C948F040C948B000C948B0024
:100020000C948B000C948B000C948B000C948B0024
:100030000C948B000C948B000C948B000C948B0014
:100040000C9445040C948B000C9413040C94ED0355
:100050000C948B000C948B000C948B000C948B00F4
:100060000C948B000C948B000000000024002700EF
:100070002A0000000008000201000003040700003D
:1000800000000000000000000000230026002900FE
:1000900000000000250028002B00040404040404D0
:1000A0000404020202020202030303030303010227
:1000B00004081020408001020408102001020408F6
:1000C000102007059C0811241FBECFEFD8E0DEBF2B
:1000D000CDBF11E0A0E0B1E0E8EDF7E102C005908E
:1000E0000D92AE35B107D9F722E0AEE5B1E001C01F
:1000F0001D92A537B207E1F710E0C2E6D0E004C0D8
:100100002197FE010E94E008C136D107C9F70E947D
:10011000B2050C94DF0B0C940000AF92BF92CF920B
:10012000DF92EF92FF920F931F93CF93DF936C01B7
:100130007B018B01040F151FEB015E01AE18BF0898
:10014000C017D10759F06991D601ED91FC9101904A
:10015000F081E02DC6010995892B79F7C501DF9162
:10016000CF911F910F91FF90EF90DF90CF90BF90B4
:10017000AF900895FC01538D448D252F30E0842FDE
:1001800090E0821B930B541710F0CF9608950197BF
:100190000895FC01918D828D981761F0A28DAE0FAC
:1001A000BF2FB11D5D968C91928D9F5F9F73928F33
:1001B00090E008958FEF9FEF0895FC01918D828D5F
:1001C000981731F0828DE80FF11D858D90E008952C
:1001D0008FEF9FEF0895FC01918D228D892F90E084
:1001E000805C9F4F821B91098F739927089589EB3B
:1001F00091E00E94EB0021E0892B09F420E0822F9E
:10020000089580E090E0892B29F00E94F700811189
:100210000C9400000895FC01A48DA80FB92FB11D06
:10022000A35ABF4F2C91848D90E001968F7399272C
:10023000848FA689B7892C93A089B1898C9183700A
:1002400080648C93938D848D981306C00288F38903
:10025000E02D80818F7D80830895EF92FF920F9330
:100260001F93CF93DF93EC0181E0888F9B8D8C8D62
:1002700098131AC0E889F989808185FF15C09FB756
:10028000F894EE89FF896083E889F9898081837019
:10029000806480839FBF81E090E0DF91CF911F91C8
:1002A0000F91FF90EF900895F62E0B8D10E00F5FE9
:1002B0001F4F0F731127E02E8C8D8E110CC00FB6BF
:1002C00007FCFACFE889F989808185FFF5CFCE0157
:1002D0000E940B01F1CFEB8DEC0FFD2FF11DE35AC6
:1002E000FF4FF0829FB7F8940B8FEA89FB898081DA
:1002F0008062CFCFCF93DF93EC01888D8823B9F054
:10030000AA89BB89E889F9898C9185FD03C0808120
:1003100086FD0DC00FB607FCF7CF8C9185FFF2CF9D
:10032000808185FFEDCFCE010E940B01E9CFDF91E7
:10033000CF91089590E0FC01EE58FF4F2491FC010D
:10034000E255FF4F3491FC01E656FF4FE491EE2356
:10035000C9F0222339F0233001F1A8F4213019F13A
:10036000223029F1F0E0EE0FFF1FE057FF4FA5917B
:10037000B4918FB7F894EC91611126C030953E236B
:100380003C938FBF08952730A9F02830C9F024305E
:1003900049F7809180008F7D03C0809180008F7726
:1003A00080938000DFCF84B58F7784BDDBCF84B5A9
:1003B0008F7DFBCF8091B0008F778093B000D2CF3C
:1003C0008091B0008F7DF9CF3E2BDACFCF93DF93B2
:1003D00090E0FC01E255FF4F249186569F4FFC01AF
:1003E00084918823D1F090E0880F991FFC01E8598F
:1003F000FF4FA591B491FC01E057FF4FC591D491F7
:1004000061110EC09FB7F8948C91E22FE0958E2376
:100410008C932881E223E8839FBFDF91CF910895D9
:100420008FB7F894EC91E22BEC938FBFF6CF8E5000
:10043000806480937C0080917A00806480937A004D
:1004400080917A0086FDFCCF8091780090917900B0
:1004500008952FB7F8946091A3017091A401809141
:10046000A5019091A6012FBF08952091A901309177
:10047000AA012817390771F49091A7018091A8016A
:10048000981741F0E091A701F0E0E25AFE4F808119
:1004900090E008958FEF9FEF08950895EF92FF92F7
:1004A0000F931F93CF93DF93DC015C96ED90FC904C
:1004B0005D97E114F10479F481E090E013969C9348
:1004C0008E93129790E080E0DF91CF911F910F9172
:1004D000FF90EF9008955196ED91FC9152975096B0
:1004E0008C915097982F90950FB75E962C915E97B0
:1004F000122F127021FD6095F8942081112319F1BB
:10050000282B2083E7012197F1F728E0462F50E0C0
:10051000308160FF1AC0382B3083E7012197F1F753
:10052000BA0175956795215089F7112381F0808173
:10053000892380830FBF5C968D919C910197F1F781
:1005400081E090E0C1CF2923DCCF3923E5CF908132
:10055000892BEFCF2091A9013091AA0128173907E3
:1005600071F48091A8012091A70190E0805C9F4FD9
:10057000821B910960E470E00E94B808089590E041
:1005800080E008952091A9013091AA012817390728
:10059000B9F49091A7018091A801981789F0E09192
:1005A000A701F0E0E25AFE4F80812091A70130E0E0
:1005B0002F5F3F4F2F7333272093A70190E00895BB
:1005C0008FEF9FEF089590E080E008951F93CF9301
:1005D000DF93C4E0D0E011E0FE01E955FE4F6081F9
:1005E00061278C2F0E949A012196CC30D105A1F76A
:1005F000DF91CF911F91089530E020E0982F917006
:10060000F901E555FE4F908386952F5F3F4F2830C7
:100610003105A1F70C94E602FB0101900020E9F7F7
:100620003197AF01461B570BDC01ED91FC91028025
:10063000F381E02D09940F931F93CF93DF93EC0187
:100640000E940C038C0164E271E0CE010E940C0355
:10065000800F911FDF91CF911F910F910895EF921D
:10066000FF920F931F93CF93DF93CDB7DEB72A97F7
:100670000FB6F894DEBF0FBECDBF8C01DC018C91AC
:10068000803569F480E0633010F011968C910E94FF
:10069000FC0267E271E086E592E00E941B03F8012C
:1006A0008081823509F04BC02181422F022E000C3F
:1006B000550BCA01C0978130910534F089309105FE
:1006C00044F0889709F448C064E371E089EB91E055
:1006D00034C05F932F9389E291E09F938F93CE0173
:1006E00001967C019F938F930E940709B701C8016F
:1006F0000E94ED0821E00F900F900F900F900F9047
:100700000F90892B09F420E0D8011196EC910E2E60
:10071000000CFF0BE658FE4F8081821721F02083EA
:1007200081E08093B30160E371E089EB91E00E9486
:100730001B0360E371E086E592E00E941B032A96AA
:100740000FB6F894DEBF0FBECDBFDF91CF911F91E2
:100750000F91FF90EF9008951F9288E58F9389E2A3
:1007600091E09F938F93FE0131967F01FF93EF936A
:100770000E940709B701C8010E94ED080F900F9071
:100780000F900F900F900F90892BB1F081E0809324
:10079000AB018093AC018093AD018093AE01809357
:1007A000AF018093B0018093B1018093B20181E0E9
:1007B0008093B301B801B9CF1092AB011092AC0194
:1007C0001092AD011092AE011092AF011092B001E3
:1007D0001092B1011092B201EACF1F920F920FB6A0
:1007E0000F9211242F933F934F935F936F937F93B7
:1007F0008F939F93AF93BF93EF93FF9389EB91E018
:100800000E940B01FF91EF91BF91AF919F918F914A
:100810007F916F915F914F913F912F910F900FBEFC
:100820000F901F9018951F920F920FB60F921124E0
:100830002F938F939F93EF93FF93E091C901F091D2
:10084000CA018081E091CF01F091D00182FD1BC0EF
:1008500090818091D2018F5F8F732091D301821795
:1008600041F0E091D201F0E0E754FE4F958F809384
:10087000D201FF91EF919F918F912F910F900FBE19
:100880000F901F9018958081F4CF1F920F920FB692
:100890000F9211242F933F938F939F93AF93BF9306
:1008A0008091A3019091A401A091A501B091A6010E
:1008B0003091A20123E0230F2D3758F50196A11D99
:1008C000B11D2093A2018093A3019093A401A09352
:1008D000A501B093A60180919E0190919F01A091E6
:1008E000A001B091A1010196A11DB11D80939E01AF
:1008F00090939F01A093A001B093A101BF91AF91EC
:100900009F918F913F912F910F900FBE0F901F904D
:10091000189526E8230F0296A11DB11DD2CF1F9274
:100920000F920FB60F9211242F933F934F935F9323
:100930006F937F938F939F93AF93BF93EF93FF93A7
:10094000E091A901F091AA01309749F0A685B785F9
:100950008585968D91FF14C09C918923A1F4FF9108
:10096000EF91BF91AF919F918F917F916F915F9127
:100970004F913F912F910F900FBE0F901F901895A0
:100980009C91892361F7A389B4899C91858980957D
:1009900089238C93868997890197F1F7608D718DF2
:1009A000A685B785558538E020E0CB010197F1F7A2
:1009B000822F90E095958795282F4C91452309F03B
:1009C0002068315091F7868D81FD20958091A80196
:1009D00090E001968F7399273091A701381799F00D
:1009E000A091A801B0E0A25ABE4F2C938093A80119
:1009F000828D938D0197F1F7A389B4898C919589A4
:100A0000892B8C93ACCF868D8160868FF1CF10922D
:100A1000BC011092BB0188EE93E0A0E0B0E08093AF
:100A2000BD019093BE01A093BF01B093C00124E02B
:100A300031E03093BA012093B90125EC30E03093D6
:100A4000C6012093C50124EC30E03093C801209307
:100A5000C70120EC30E03093CA012093C90121EC9A
:100A600030E03093CC012093CB0122EC30E0309386
:100A7000CE012093CD0126EC30E03093D0012093BD
:100A8000CF011092D2011092D3011092D401109292
:100A9000D501109259021092580280935A029093F5
:100AA0005B02A0935C02B0935D0286E191E09093BB
:100AB00057028093560210926D0210926C021092AF
:100AC0006F0210926E0210927102109270021092D8
:100AD000730210927202609174026E7F6D7F609358
:100AE00074026695617081E0682783E00E949A0134
:100AF00061E083E00E94E601E1EBF0E0E491E09345
:100B00006602EDE9F0E0E491F0E0EE0FFF1FE05740
:100B1000FF4F85919491909368028093670260E003
:100B200082E00E94E6018091740281FD04C061E0D0
:100B300082E00E949A0182E080936202E0EBF0E0A2
:100B4000E491E0936302ECE9F0E0E491F0E0EE0F71
:100B5000FF1FEA57FF4F8591949190936502809310
:100B600064020895CF93DF9300D000D01F92CDB7D9
:100B7000DEB7789484B5826084BD84B5816084BD1D
:100B800085B5826085BD85B5816085BD80916E002B
:100B9000816080936E00109281008091810082605C
:100BA0008093810080918100816080938100809199
:100BB00080008160809380008091B1008460809388
:100BC000B1008091B00081608093B00080917A0084
:100BD000846080937A0080917A00826080937A00AA
:100BE00080917A00816080937A0080917A00806899
:100BF00080937A001092C10061E08EE00E94E601CD
:100C000061E083E10E94E60161E08FE00E94E6017D
:100C100060E08FE00E949A0161E08EE00E949A01FC
:100C200060E083E10E949A0160E084E10E94E601B5
:100C300060E082E10E94E60114E061E0812F0E9401
:100C4000E60161E0812F0E949A011F5F1C30A9F725
:100C5000E091C901F091CA0182E08083E091C50171
:100C6000F091C6011082E091C701F091C80180E1C6
:100C700080831092D101E091CD01F091CE0186E008
:100C80008083E091CB01F091CC01808180618083F1
:100C9000E091CB01F091CC01808188608083E0916C
:100CA000CB01F091CC01808180688083E091CB0101
:100CB000F091CC0180818F7D80831092710210921F
:100CC000700210926F0210926E0210926D021092DA
:100CD0006C028DE991E0909373028093720290917F
:100CE0006202963108F047C02DEB30E030936D0280
:100CF00020936C022BE931E030936F0220936E0257
:100D00002CE231E030937102209370022091680050
:100D100084E0983048F031E09E3008F430E081E023
:100D200001C0880F3A95EAF7822B809368002DE680
:100D300030E0983050F02BE630E09E3030F02CE67A
:100D400030E0963110F030E020E030936A022093DA
:100D50006902292F30E0983008F0CAC081E001C054
:100D6000880F9A95EAF780936B02809172029091B6
:100D700073020197F1F78091700290917102892BB3
:100D800049F1E091A901F091AA0122E0E635F207CC
:100D900009F1309739F0A389B4899C9185898095B0
:100DA00089238C93809174028E7F809374021092B9
:100DB000A8011092A70186E592E09093AA01809382
:100DC000A901E0916902F0916A02808190916B0221
:100DD000892B80830E9429026093B4017093B5012E
:100DE0008093B6019093B7010E94290262E471E0FA
:100DF00086E592E00E941B03CE0101966C0144241B
:100E00004394552453948091B8018823F9F090E0DD
:100E100080E040E0FC01E555FE4F2081082E01C036
:100E2000220F0A94EAF7420F01968830910591F754
:100E300041116BC067E471E0C6010E94E608B6018B
:100E400086E592E00E940C031092B8010E942902EC
:100E50000091B4011091B5012091B6013091B70114
:100E6000601B710B820B930B643671058105910534
:100E700008F447C10E9429026093B4017093B50140
:100E80008093B6019093B70189EB91E00E94EB004B
:100E9000892B09F469C06DB67EB689EB91E00E949A
:100EA000EB005C01282E99274C0131E0831A910850
:100EB000EDB7FEB7E81BF90B0FB6F894FEBF0FBEF7
:100EC000EDBF0DB71EB70F5F1F4F302E78018E2D6F
:100ED00083198215E0F589EB91E00E94C900F701C2
:100EE00081937F01682F86E592E00E944E02EFCF4A
:100EF0009E3040F42850310981E001C0880F2A95C6
:100F0000EAF731CF2E503109F7CF90E080E040E092
:100F1000FC01E555FE4F2081082E01C0220F0A94E6
:100F2000EAF7420F01968830910591F71F924F938F
:100F3000EDE4F1E0FF93EF93DF92CF920E94070977
:100F40000F900F900F900F900F900F9078CFF801A7
:100F5000E80DF91D10826A2DC8010E942F030FB6FB
:100F6000F8947EBE0FBE6DBE0E9429020091B401AE
:100F70001091B5012091B6013091B701601B710B42
:100F8000820B930B6C32714081059105A8F10E9490
:100F9000290282E10E9417028C0184E10E9417025B
:100FA0001092B3010431110554F0093211050CF40B
:100FB0005FC00A5911400B30110508F461C08F332E
:100FC00023E092070CF062C0843333E093070CF007
:100FD00073C08236E2E09E0754F08539F2E09F0745
:100FE0000CF476C0845E92400B9708F46BC080913D
:100FF000B30181115092B80186E592E00E94AA02E5
:10100000181619060CF07DC06DB67EB686E592E026
:101010000E94AA025C01282E99274C01E1E08E1A59
:1010200091082DB73EB7281B390B0FB6F8943EBF79
:101030000FBE2DBF0DB71EB70F5F1F4F62E571E0EA
:1010400089EB91E00E940C03302E78018E2D8319DC
:10105000821508F049C086E592E00E94C202F701BD
:1010600081937F01682F89EB91E00E942D01EECFE3
:101070002091AB0124252093AB015092B3019FCF67
:101080002091AC0124252093AC01F7CF803723E0D9
:1010900092070CF4ACCF8A3733E09307FCF0865B01
:1010A0009340459708F0A3CF8091AD0184258093AC
:1010B000AD015092B3019BCF8091AE018425809306
:1010C000AE01F7CF8091AF0184258093AF01F1CFBE
:1010D0008091B00184258093B001EBCF8091B10164
:1010E00084258093B101E5CFF801E80DF91D108248
:1010F0006A2DC8010E942F030FB6F8947EBE0FBE62
:101100006DBE8091B301882351F064E571E089EBF5
:1011100091E00E941B030E94E6021092B30120E0BE
:1011200030E0232B09F46FCE0E94F700882309F4E6
:101130006ACE0E94000067CE86E191E0909357024C
:10114000809356028091A9019091AA018655924000
:1011500071F4E0916902F0916A02908180916B02D2
:101160008095892380831092AA011092A901089585
:1011700097FB072E16F4009407D077FD09D00E9444
:10118000CC0807FC05D03EF4909581959F4F0895BB
:10119000709561957F4F0895AA1BBB1B51E107C055
:1011A000AA1FBB1FA617B70710F0A61BB70B881FF7
:1011B000991F5A95A9F780959095BC01CD01089586
:1011C000EE0FFF1F0590F491E02D0994FB01DC0167
:1011D00001900D920020E1F70895FB0151915523F4
:1011E000A9F0BF01DC014D9145174111E1F759F418
:1011F000CD010190002049F04D9140154111C9F3F6
:10120000FB014111EFCF81E090E001970895AEE03E
:10121000B0E0EDE0F9E00C94B60B0D891E8986E094
:101220008C831A8309838FEF9FE79E838D83AE01A2
:10123000475E5F4F6F89788DCE0101960E942A0923
:101240002F813885020F131FF80110822E96E4E0DB
:101250000C94D20BABE0B0E0E0E3F9E00C94A80B07
:101260007C013B018A01FC0117821682838181FF88
:10127000C8C1CE0101965C01F7019381F30193FD92
:10128000859193FF81913F01882309F453C18532F1
:1012900039F493FD859193FF81913F01853229F4C3
:1012A000B70190E00E941A0BE7CF912C212C312C32
:1012B000FFE1F31538F08B3211F190F4803209F12F
:1012C000833229F137FC3CC020ED280F2A3050F53D
:1012D00036FE20C08AE0989E200D1124922E06C072
:1012E0008D3291F0803371F7689430F8F30193FDFB
:1012F000859193FF81913F018111DACF21C06894DC
:1013000031F8689432F8F2CF689433F8EFCF6894EC
:1013100034F8ECCFEAE02E9E200D1124222E6894A2
:1013200035F8E4CF8E3229F436FC04C1689436F8DF
:10133000DDCF8C3619F4689437F8D8CF8836B1F2FF
:10134000982F9F7D95549330E0F08336A1F1833739
:10135000C1F1833509F063C02801F2E04F0E511C42
:10136000F801C080D180692D70E036FC02C06FEFBB
:101370007FEFC6010E94040B4C01689437F882018C
:101380000AC00C5F1F4FFFE3F98388248394912CDC
:101390006501E89437F833FE2DC0522C8114910476
:1013A00071F5552009F468CFB70180E290E00E9402
:1013B0001A0B5A94F6CFF801808189830E5F1F4F74
:1013C000E4CF2801F2E04F0E511CF801C080D1801B
:1013D000692D70E036FC02C06FEF7FEFC6010E94FE
:1013E0000F0B4C018201D5CFB70180E290E00E9443
:1013F0001A0B2A942814190409F0B0F7CECFF6017D
:1014000037FC859137FE81916F01B70190E00E9412
:101410001A0B51105A94F1E08F1A9108BFCF8436FD
:1014200019F0893609F077C0F80137FE6BC060818A
:101430007181828193810C5F1F4FF32DFF763F2EC8
:1014400097FF09C090958095709561957F4F8F4F5C
:101450009F4F689437F82AE030E0A5010E944A0BBC
:10146000C82ECA188C2C432C36FE0CC0E89440F8C9
:10147000C91440F434FE05C032FC03C0F32DFE7ED7
:101480004F2E892C44FE95C0FE01EC0DF11D80818C
:10149000803309F087C0242D297E422E842D887048
:1014A000582E43FC95C040FE8FC09C2C821418F42B
:1014B0002C0C922C981844FE91C0B70180E390E068
:1014C0000E941A0B42FE09C088E790E041FE02C06C
:1014D00088E590E0B7010E941A0BC91408F48AC08D
:1014E000CA94D12C9FEFC91AD90ACA0CDB1CF60189
:1014F00082916F01B70190E00E941A0BAC14BD04F9
:10150000B1F74FCF60817181072E000C880B990BCA
:101510000E5F1F4F92CFD32CE894D4F82AE030E02E
:10152000853739F1232D297FD22E8F3601F148F4EA
:101530008835A9F0F701868197812B96E2E10C941A
:10154000C40B803749F08837A9F7D4FE02C06894ED
:10155000D2F820E130E00DC06894D4F8F6CF34FE24
:1015600003C0822F8660D82E20E132E002C028E03E
:1015700030E0F801D7FE0FC06081718182819381D4
:101580000C5F1F4FA5010E944A0BC82ECA183D2CA4
:10159000E89437F867CF6081718190E080E00E5F5A
:1015A0001F4FF0CF42FC02C0839478CF8394839482
:1015B00075CF842D867809F471CFF6CFB70180E21C
:1015C00090E00E941A0B83948214C0F3512C73CFC5
:1015D000522C5818821408F46ECFF8CF842D8678D8
:1015E00009F47BCF8BE241FE80E247FC8DE2B7013C
:1015F00090E071CFB70180E390E00E941A0B9A94BB
:101600006CCF8FEF9FEF99CFFC0105906150704038
:101610000110D8F7809590958E0F9F1F0895FC01BB
:101620006150704001900110D8F7809590958E0F11
:101630009F1F08950F931F93CF93DF93182F092FA8
:10164000EB018B8181FD09C01FEF0FEF812F902FE0
:10165000DF91CF911F910F91089582FF14C02E81C9
:101660003F818C819D81281739073CF4E881F981FD
:10167000CF0101969983888310838E819F81019683
:101680009F838E83E3CFE885F985812F0995892B88
:10169000A1F3DACFFA01AA27283051F1203181F1E4
:1016A000E8946F936E7F6E5F7F4F8F4F9F4FAF4F6A
:1016B000B1E03ED0B4E03CD0670F781F891F9A1F7D
:1016C000A11D680F791F8A1F911DA11D6A0F711D31
:1016D000811D911DA11D20D009F468943F912AE03D
:1016E000269F11243019305D3193DEF6CF01089525
:1016F000462F4770405D4193B3E00FD0C9F7F6CF56
:10170000462F4F70405D4A3318F0495D31FD40521D
:10171000419302D0A9F7EACFB4E0A69597958795B3
:1017200077956795BA95C9F7009761057105089592
:101730009B01AC010A2E069457954795379527953E
:10174000BA95C9F7620F731F841F951FA01D0895D6
:101750002F923F924F925F926F927F928F929F92C1
:10176000AF92BF92CF92DF92EF92FF920F931F93AF
:10177000CF93DF93CDB7DEB7CA1BDB0B0FB6F89460
:10178000DEBF0FBECDBF09942A88398848885F84A0
:101790006E847D848C849B84AA84B984C884DF8011
:1017A000EE80FD800C811B81AA81B981CE0FD11DF5
:1017B0000FB6F894DEBF0FBECDBFED01089510E067
:1017C000C2E6D0E004C0FE010E94E0082196C336C4
:0817D000D107C9F7F894FFCF1F
:1017D800000000002D018D00BA007A01EB00C9005D
:1017E800DD00000000004E028D00E3024D02AA0257
:1017F800C20235020D0A0079005225633A4F4E00A5
:101808007965730023746F206A65206469766E7940
:10181800210052583A3F0052583A300A0050256386
:0E1828000A0023006E6173746176756A6900B0
:00000001FF
